{
  "contractName": "SupplyChain",
  "abi": [
    {
      "inputs": [],
      "stateMutability": "nonpayable",
      "type": "constructor"
    },
    {
      "anonymous": false,
      "inputs": [
        {
          "indexed": false,
          "internalType": "uint256",
          "name": "id",
          "type": "uint256"
        },
        {
          "indexed": false,
          "internalType": "string",
          "name": "name",
          "type": "string"
        },
        {
          "indexed": false,
          "internalType": "address",
          "name": "owner",
          "type": "address"
        }
      ],
      "name": "ProductCreated",
      "type": "event"
    },
    {
      "anonymous": false,
      "inputs": [
        {
          "indexed": false,
          "internalType": "uint256",
          "name": "id",
          "type": "uint256"
        },
        {
          "indexed": false,
          "internalType": "string",
          "name": "status",
          "type": "string"
        },
        {
          "indexed": false,
          "internalType": "string",
          "name": "location",
          "type": "string"
        },
        {
          "indexed": false,
          "internalType": "address",
          "name": "owner",
          "type": "address"
        }
      ],
      "name": "ProductUpdated",
      "type": "event"
    },
    {
      "inputs": [],
      "name": "productCount",
      "outputs": [
        {
          "internalType": "uint256",
          "name": "",
          "type": "uint256"
        }
      ],
      "stateMutability": "view",
      "type": "function",
      "constant": true
    },
    {
      "inputs": [
        {
          "internalType": "uint256",
          "name": "",
          "type": "uint256"
        }
      ],
      "name": "products",
      "outputs": [
        {
          "internalType": "uint256",
          "name": "id",
          "type": "uint256"
        },
        {
          "internalType": "string",
          "name": "name",
          "type": "string"
        },
        {
          "internalType": "string",
          "name": "location",
          "type": "string"
        },
        {
          "internalType": "string",
          "name": "status",
          "type": "string"
        },
        {
          "internalType": "uint256",
          "name": "timestamp",
          "type": "uint256"
        },
        {
          "internalType": "address",
          "name": "owner",
          "type": "address"
        }
      ],
      "stateMutability": "view",
      "type": "function",
      "constant": true
    },
    {
      "inputs": [
        {
          "internalType": "string",
          "name": "_name",
          "type": "string"
        },
        {
          "internalType": "string",
          "name": "_location",
          "type": "string"
        }
      ],
      "name": "createProduct",
      "outputs": [],
      "stateMutability": "nonpayable",
      "type": "function"
    },
    {
      "inputs": [
        {
          "internalType": "uint256",
          "name": "_productId",
          "type": "uint256"
        },
        {
          "internalType": "string",
          "name": "_status",
          "type": "string"
        },
        {
          "internalType": "string",
          "name": "_location",
          "type": "string"
        }
      ],
      "name": "updateProduct",
      "outputs": [],
      "stateMutability": "nonpayable",
      "type": "function"
    },
    {
      "inputs": [
        {
          "internalType": "uint256",
          "name": "_productId",
          "type": "uint256"
        }
      ],
      "name": "getProduct",
      "outputs": [
        {
          "internalType": "uint256",
          "name": "id",
          "type": "uint256"
        },
        {
          "internalType": "string",
          "name": "name",
          "type": "string"
        },
        {
          "internalType": "string",
          "name": "location",
          "type": "string"
        },
        {
          "internalType": "string",
          "name": "status",
          "type": "string"
        },
        {
          "internalType": "uint256",
          "name": "timestamp",
          "type": "uint256"
        },
        {
          "internalType": "address",
          "name": "owner",
          "type": "address"
        }
      ],
      "stateMutability": "view",
      "type": "function",
      "constant": true
    }
  ],
  "bytecode": "0x608060405234801561001057600080fd5b5060006001819055506111dc806100286000396000f3fe608060405234801561001057600080fd5b50600436106100575760003560e01c80630ecbabff1461005c5780637acc0b201461007857806387592bce146100ad578063b9db15b4146100c9578063e0f6ef87146100fe575b600080fd5b61007660048036038101906100719190610b7d565b61011c565b005b610092600480360381019061008d9190610b54565b6102da565b6040516100a496959493929190610f05565b60405180910390f35b6100c760048036038101906100c29190610ae8565b6104ce565b005b6100e360048036038101906100de9190610b54565b6106f2565b6040516100f596959493929190610f05565b60405180910390f35b6101066109c2565b6040516101139190610e59565b60405180910390f35b60008311801561012e57506001548311155b61016d576040517f08c379a000000000000000000000000000000000000000000000000000000000815260040161016490610db9565b60405180910390fd5b6000806000858152602001908152602001600020905060008160000154116101ca576040517f08c379a00000000000000000000000000000000000000000000000000000000081526004016101c190610e19565b60405180910390fd5b8060050160009054906101000a900473ffffffffffffffffffffffffffffffffffffffff1673ffffffffffffffffffffffffffffffffffffffff163373ffffffffffffffffffffffffffffffffffffffff161461025c576040517f08c379a000000000000000000000000000000000000000000000000000000000815260040161025390610df9565b60405180910390fd5b828160030190805190602001906102749291906109c8565b508181600201908051906020019061028d9291906109c8565b504281600401819055507f5d0dd9e7704ca1513612da85865a84d060c94fdfeb479eb9ac7393543c284d72848484336040516102cc9493929190610eb2565b60405180910390a150505050565b600060205280600052604060002060009150905080600001549080600101805461030390611076565b80601f016020809104026020016040519081016040528092919081815260200182805461032f90611076565b801561037c5780601f106103515761010080835404028352916020019161037c565b820191906000526020600020905b81548152906001019060200180831161035f57829003601f168201915b50505050509080600201805461039190611076565b80601f01602080910402602001604051908101604052809291908181526020018280546103bd90611076565b801561040a5780601f106103df5761010080835404028352916020019161040a565b820191906000526020600020905b8154815290600101906020018083116103ed57829003601f168201915b50505050509080600301805461041f90611076565b80601f016020809104026020016040519081016040528092919081815260200182805461044b90611076565b80156104985780601f1061046d57610100808354040283529160200191610498565b820191906000526020600020905b81548152906001019060200180831161047b57829003601f168201915b5050505050908060040154908060050160009054906101000a900473ffffffffffffffffffffffffffffffffffffffff16905086565b6000825111610512576040517f08c379a000000000000000000000000000000000000000000000000000000000815260040161050990610dd9565b60405180910390fd5b6000815111610556576040517f08c379a000000000000000000000000000000000000000000000000000000000815260040161054d90610e39565b60405180910390fd5b60016000815480929190610569906110a8565b91905055506040518060c0016040528060015481526020018381526020018281526020016040518060400160405280600a81526020017f446970726f64756b73690000000000000000000000000000000000000000000081525081526020014281526020013373ffffffffffffffffffffffffffffffffffffffff1681525060008060015481526020019081526020016000206000820151816000015560208201518160010190805190602001906106229291906109c8565b50604082015181600201908051906020019061063f9291906109c8565b50606082015181600301908051906020019061065c9291906109c8565b506080820151816004015560a08201518160050160006101000a81548173ffffffffffffffffffffffffffffffffffffffff021916908373ffffffffffffffffffffffffffffffffffffffff1602179055509050507faf6ffb6277511513e7d579327cc1fc57f0266df2fb11a60b13487b8c9cd2c38860015483336040516106e693929190610e74565b60405180910390a15050565b6000606080606060008060008711801561070e57506001548711155b61074d576040517f08c379a000000000000000000000000000000000000000000000000000000000815260040161074490610db9565b60405180910390fd5b60008060008981526020019081526020016000206040518060c00160405290816000820154815260200160018201805461078690611076565b80601f01602080910402602001604051908101604052809291908181526020018280546107b290611076565b80156107ff5780601f106107d4576101008083540402835291602001916107ff565b820191906000526020600020905b8154815290600101906020018083116107e257829003601f168201915b5050505050815260200160028201805461081890611076565b80601f016020809104026020016040519081016040528092919081815260200182805461084490611076565b80156108915780601f1061086657610100808354040283529160200191610891565b820191906000526020600020905b81548152906001019060200180831161087457829003601f168201915b505050505081526020016003820180546108aa90611076565b80601f01602080910402602001604051908101604052809291908181526020018280546108d690611076565b80156109235780601f106108f857610100808354040283529160200191610923565b820191906000526020600020905b81548152906001019060200180831161090657829003601f168201915b50505050508152602001600482015481526020016005820160009054906101000a900473ffffffffffffffffffffffffffffffffffffffff1673ffffffffffffffffffffffffffffffffffffffff1673ffffffffffffffffffffffffffffffffffffffff16815250509050806000015181602001518260400151836060015184608001518560a001519650965096509650965096505091939550919395565b60015481565b8280546109d490611076565b90600052602060002090601f0160209004810192826109f65760008555610a3d565b82601f10610a0f57805160ff1916838001178555610a3d565b82800160010185558215610a3d579182015b82811115610a3c578251825591602001919060010190610a21565b5b509050610a4a9190610a4e565b5090565b5b80821115610a67576000816000905550600101610a4f565b5090565b6000610a7e610a7984610fac565b610f7b565b905082815260208101848484011115610a9657600080fd5b610aa1848285611034565b509392505050565b600082601f830112610aba57600080fd5b8135610aca848260208601610a6b565b91505092915050565b600081359050610ae28161118f565b92915050565b60008060408385031215610afb57600080fd5b600083013567ffffffffffffffff811115610b1557600080fd5b610b2185828601610aa9565b925050602083013567ffffffffffffffff811115610b3e57600080fd5b610b4a85828601610aa9565b9150509250929050565b600060208284031215610b6657600080fd5b6000610b7484828501610ad3565b91505092915050565b600080600060608486031215610b9257600080fd5b6000610ba086828701610ad3565b935050602084013567ffffffffffffffff811115610bbd57600080fd5b610bc986828701610aa9565b925050604084013567ffffffffffffffff811115610be657600080fd5b610bf286828701610aa9565b9150509250925092565b610c0581610ff8565b82525050565b6000610c1682610fdc565b610c208185610fe7565b9350610c30818560208601611043565b610c398161117e565b840191505092915050565b6000610c51601683610fe7565b91507f49442070726f64756b20746964616b2076616c696421000000000000000000006000830152602082019050919050565b6000610c91601283610fe7565b91507f4e616d612070726f64756b206b6f736f6e6700000000000000000000000000006000830152602082019050919050565b6000610cd1602483610fe7565b91507f48616e79612070656d696c696b2079616e672062697361206d656d706572626160008301527f72756921000000000000000000000000000000000000000000000000000000006020830152604082019050919050565b6000610d37601783610fe7565b91507f50726f64756b20746964616b20646974656d756b616e210000000000000000006000830152602082019050919050565b6000610d77601483610fe7565b91507f4c6f6b6173692070726f64756b206b6f736f6e670000000000000000000000006000830152602082019050919050565b610db38161102a565b82525050565b60006020820190508181036000830152610dd281610c44565b9050919050565b60006020820190508181036000830152610df281610c84565b9050919050565b60006020820190508181036000830152610e1281610cc4565b9050919050565b60006020820190508181036000830152610e3281610d2a565b9050919050565b60006020820190508181036000830152610e5281610d6a565b9050919050565b6000602082019050610e6e6000830184610daa565b92915050565b6000606082019050610e896000830186610daa565b8181036020830152610e9b8185610c0b565b9050610eaa6040830184610bfc565b949350505050565b6000608082019050610ec76000830187610daa565b8181036020830152610ed98186610c0b565b90508181036040830152610eed8185610c0b565b9050610efc6060830184610bfc565b95945050505050565b600060c082019050610f1a6000830189610daa565b8181036020830152610f2c8188610c0b565b90508181036040830152610f408187610c0b565b90508181036060830152610f548186610c0b565b9050610f636080830185610daa565b610f7060a0830184610bfc565b979650505050505050565b6000604051905081810181811067ffffffffffffffff82111715610fa257610fa161114f565b5b8060405250919050565b600067ffffffffffffffff821115610fc757610fc661114f565b5b601f19601f8301169050602081019050919050565b600081519050919050565b600082825260208201905092915050565b60006110038261100a565b9050919050565b600073ffffffffffffffffffffffffffffffffffffffff82169050919050565b6000819050919050565b82818337600083830152505050565b60005b83811015611061578082015181840152602081019050611046565b83811115611070576000848401525b50505050565b6000600282049050600182168061108e57607f821691505b602082108114156110a2576110a1611120565b5b50919050565b60006110b38261102a565b91507fffffffffffffffffffffffffffffffffffffffffffffffffffffffffffffffff8214156110e6576110e56110f1565b5b600182019050919050565b7f4e487b7100000000000000000000000000000000000000000000000000000000600052601160045260246000fd5b7f4e487b7100000000000000000000000000000000000000000000000000000000600052602260045260246000fd5b7f4e487b7100000000000000000000000000000000000000000000000000000000600052604160045260246000fd5b6000601f19601f8301169050919050565b6111988161102a565b81146111a357600080fd5b5056fea2646970667358221220ba36106902009bbfbfef12a25fd8c1612a1219e23ceaa1571ce148cb18921ebf64736f6c63430008000033",
  "immutableReferences": {},
  "source": "// SPDX-License-Identifier: MIT\r\npragma solidity ^0.8.0;\r\n\r\ncontract SupplyChain {\r\n    struct Product {\r\n        uint id; \r\n        string name; \r\n        string location; \r\n        string status; \r\n        uint256 timestamp; \r\n        address owner; \r\n    }\r\n\r\n    mapping(uint => Product) public products; \r\n    uint public productCount; \r\n\r\n    constructor() {\r\n        productCount = 0; // Hanya inisialisasi nilai\r\n    }\r\n\r\n    event ProductCreated(uint id, string name, address owner);\r\n    event ProductUpdated(uint id, string status, string location, address owner);\r\n\r\n    function createProduct(string memory _name, string memory _location) public {\r\n        require(bytes(_name).length > 0, \"Nama produk kosong\");\r\n        require(bytes(_location).length > 0, \"Lokasi produk kosong\");\r\n\r\n        productCount++; \r\n        products[productCount] = Product(\r\n            productCount,\r\n            _name,\r\n            _location,\r\n            \"Diproduksi\",\r\n            block.timestamp,\r\n            msg.sender\r\n        );\r\n\r\n        emit ProductCreated(productCount, _name, msg.sender);\r\n    }\r\n\r\n    function updateProduct(uint _productId, string memory _status, string memory _location) public {\r\n        require(_productId > 0 && _productId <= productCount, \"ID produk tidak valid!\");\r\n        Product storage product = products[_productId];\r\n        require(product.id > 0, \"Produk tidak ditemukan!\");\r\n        require(msg.sender == product.owner, \"Hanya pemilik yang bisa memperbarui!\");\r\n\r\n        product.status = _status;\r\n        product.location = _location;\r\n        product.timestamp = block.timestamp;\r\n\r\n        emit ProductUpdated(_productId, _status, _location, msg.sender);\r\n    }\r\n\r\n    function getProduct(uint _productId) public view returns (\r\n        uint id, \r\n        string memory name, \r\n        string memory location, \r\n        string memory status, \r\n        uint256 timestamp, \r\n        address owner\r\n    ) {\r\n        require(_productId > 0 && _productId <= productCount, \"ID produk tidak valid!\");\r\n        Product memory product = products[_productId];\r\n        return (product.id, product.name, product.location, product.status, product.timestamp, product.owner);\r\n    }\r\n}\r\n",
  "sourcePath": "g:\\Users\\acer\\Documents\\6833 MUHAMAD ABILA NURRODIN\\KULIAH\\SMT 5\\BLOCKCHAIN\\project\\contracts\\SupplyChain.sol",
  "compiler": {
    "name": "solc",
    "version": "0.8.0+commit.c7dfd78e.Emscripten.clang"
  },
  "schemaVersion": "3.4.16",
  "updatedAt": "2024-12-13T12:54:07.404Z",
  "networkType": "ethereum",
  "devdoc": {
    "kind": "dev",
    "methods": {},
    "version": 1
  },
  "userdoc": {
    "kind": "user",
    "methods": {},
    "version": 1
  }
}